{
  "contractName": "AtomicSwap",
  "abi": [
    {
      "anonymous": false,
      "inputs": [
        {
          "indexed": false,
          "name": "sID",
          "type": "bytes32"
        },
        {
          "indexed": false,
          "name": "_closeTrader",
          "type": "address"
        }
      ],
      "name": "Open",
      "type": "event",
      "signature": "0xb5894ff5a344c5160302de0b2027c5b55f4914e9d8e8c11b377b559e5ec789eb"
    },
    {
      "anonymous": false,
      "inputs": [
        {
          "indexed": false,
          "name": "sID",
          "type": "bytes32"
        }
      ],
      "name": "Close",
      "type": "event",
      "signature": "0xc9d8209586aca26a4f59cc70108e4cf2f637da8cb4133c78a3946bc50581ea28"
    },
    {
      "anonymous": false,
      "inputs": [
        {
          "indexed": false,
          "name": "sID",
          "type": "bytes32"
        }
      ],
      "name": "Expire",
      "type": "event",
      "signature": "0xbddd9b693ea862fad6ecf78fd51c065be26fda94d1f3cad3a7d691453a38a735"
    },
    {
      "constant": false,
      "inputs": [
        {
          "name": "sID",
          "type": "bytes32"
        },
        {
          "name": "_erc20V",
          "type": "uint256"
        },
        {
          "name": "_participantERC20",
          "type": "address"
        },
        {
          "name": "_erc20ContractAddress",
          "type": "address"
        }
      ],
      "name": "open",
      "outputs": [],
      "payable": true,
      "stateMutability": "payable",
      "type": "function",
      "signature": "0x6e792315"
    },
    {
      "constant": true,
      "inputs": [
        {
          "name": "_swapID",
          "type": "bytes32"
        }
      ],
      "name": "checkTrade",
      "outputs": [
        {
          "name": "value",
          "type": "uint256"
        },
        {
          "name": "erc20V",
          "type": "uint256"
        },
        {
          "name": "participantERC20",
          "type": "address"
        },
        {
          "name": "erc20ContractAddress",
          "type": "address"
        }
      ],
      "payable": false,
      "stateMutability": "view",
      "type": "function",
      "signature": "0x37423187"
    },
    {
      "constant": false,
      "inputs": [
        {
          "name": "sID",
          "type": "bytes32"
        }
      ],
      "name": "close",
      "outputs": [],
      "payable": false,
      "stateMutability": "nonpayable",
      "type": "function",
      "signature": "0x39c79e0c"
    },
    {
      "constant": false,
      "inputs": [
        {
          "name": "sID",
          "type": "bytes32"
        }
      ],
      "name": "expire",
      "outputs": [],
      "payable": false,
      "stateMutability": "nonpayable",
      "type": "function",
      "signature": "0xc6441798"
    }
  ],
  "bytecode": "0x608060405234801561001057600080fd5b50610d06806100206000396000f3fe60806040526004361061005c576000357c010000000000000000000000000000000000000000000000000000000090048063374231871461006157806339c79e0c1461011d5780636e79231514610158578063c6441798146101d0575b600080fd5b34801561006d57600080fd5b5061009a6004803603602081101561008457600080fd5b810190808035906020019092919050505061020b565b604051808581526020018481526020018373ffffffffffffffffffffffffffffffffffffffff1673ffffffffffffffffffffffffffffffffffffffff1681526020018273ffffffffffffffffffffffffffffffffffffffff1673ffffffffffffffffffffffffffffffffffffffff16815260200194505050505060405180910390f35b34801561012957600080fd5b506101566004803603602081101561014057600080fd5b8101908080359060200190929190505050610376565b005b6101ce6004803603608081101561016e57600080fd5b810190808035906020019092919080359060200190929190803573ffffffffffffffffffffffffffffffffffffffff169060200190929190803573ffffffffffffffffffffffffffffffffffffffff16906020019092919050505061080a565b005b3480156101dc57600080fd5b50610209600480360360208110156101f357600080fd5b8101908080359060200190929190505050610a24565b005b600080600080610219610c68565b60008087815260200190815260200160002060a060405190810160405290816000820160009054906101000a900473ffffffffffffffffffffffffffffffffffffffff1673ffffffffffffffffffffffffffffffffffffffff1673ffffffffffffffffffffffffffffffffffffffff168152602001600182015481526020016002820160009054906101000a900473ffffffffffffffffffffffffffffffffffffffff1673ffffffffffffffffffffffffffffffffffffffff1673ffffffffffffffffffffffffffffffffffffffff1681526020016003820160009054906101000a900473ffffffffffffffffffffffffffffffffffffffff1673ffffffffffffffffffffffffffffffffffffffff1673ffffffffffffffffffffffffffffffffffffffff168152602001600482015481525050905080608001518160200151826040015183606001518191509450945094509450509193509193565b806000600281111561038457fe5b6001600083815260200190815260200160002060009054906101000a900460ff1660028111156103b057fe5b1415156103bc57600080fd5b6103c4610c68565b60008084815260200190815260200160002060a060405190810160405290816000820160009054906101000a900473ffffffffffffffffffffffffffffffffffffffff1673ffffffffffffffffffffffffffffffffffffffff1673ffffffffffffffffffffffffffffffffffffffff168152602001600182015481526020016002820160009054906101000a900473ffffffffffffffffffffffffffffffffffffffff1673ffffffffffffffffffffffffffffffffffffffff1673ffffffffffffffffffffffffffffffffffffffff1681526020016003820160009054906101000a900473ffffffffffffffffffffffffffffffffffffffff1673ffffffffffffffffffffffffffffffffffffffff1673ffffffffffffffffffffffffffffffffffffffff1681526020016004820154815250509050600180600085815260200190815260200160002060006101000a81548160ff0219169083600281111561052957fe5b02179055506000816060015190508073ffffffffffffffffffffffffffffffffffffffff1663dd62ed3e8360400151306040518363ffffffff167c0100000000000000000000000000000000000000000000000000000000028152600401808373ffffffffffffffffffffffffffffffffffffffff1673ffffffffffffffffffffffffffffffffffffffff1681526020018273ffffffffffffffffffffffffffffffffffffffff1673ffffffffffffffffffffffffffffffffffffffff1681526020019250505060206040518083038186803b15801561060857600080fd5b505afa15801561061c573d6000803e3d6000fd5b505050506040513d602081101561063257600080fd5b810190808051906020019092919050505082602001511115151561065557600080fd5b8073ffffffffffffffffffffffffffffffffffffffff166323b872dd8360400151846000015185602001516040518463ffffffff167c0100000000000000000000000000000000000000000000000000000000028152600401808473ffffffffffffffffffffffffffffffffffffffff1673ffffffffffffffffffffffffffffffffffffffff1681526020018373ffffffffffffffffffffffffffffffffffffffff1673ffffffffffffffffffffffffffffffffffffffff1681526020018281526020019350505050602060405180830381600087803b15801561073857600080fd5b505af115801561074c573d6000803e3d6000fd5b505050506040513d602081101561076257600080fd5b8101908080519060200190929190505050151561077e57600080fd5b816040015173ffffffffffffffffffffffffffffffffffffffff166108fc83608001519081150290604051600060405180830381858888f193505050501580156107cc573d6000803e3d6000fd5b507fc9d8209586aca26a4f59cc70108e4cf2f637da8cb4133c78a3946bc50581ea28846040518082815260200191505060405180910390a150505050565b610812610c68565b60a0604051908101604052803373ffffffffffffffffffffffffffffffffffffffff1681526020018581526020018473ffffffffffffffffffffffffffffffffffffffff1681526020018373ffffffffffffffffffffffffffffffffffffffff1681526020013481525090508060008087815260200190815260200160002060008201518160000160006101000a81548173ffffffffffffffffffffffffffffffffffffffff021916908373ffffffffffffffffffffffffffffffffffffffff1602179055506020820151816001015560408201518160020160006101000a81548173ffffffffffffffffffffffffffffffffffffffff021916908373ffffffffffffffffffffffffffffffffffffffff16021790555060608201518160030160006101000a81548173ffffffffffffffffffffffffffffffffffffffff021916908373ffffffffffffffffffffffffffffffffffffffff1602179055506080820151816004015590505060006001600087815260200190815260200160002060006101000a81548160ff021916908360028111156109ad57fe5b02179055507fb5894ff5a344c5160302de0b2027c5b55f4914e9d8e8c11b377b559e5ec789eb8584604051808381526020018273ffffffffffffffffffffffffffffffffffffffff1673ffffffffffffffffffffffffffffffffffffffff1681526020019250505060405180910390a15050505050565b8060006002811115610a3257fe5b6001600083815260200190815260200160002060009054906101000a900460ff166002811115610a5e57fe5b141515610a6a57600080fd5b610a72610c68565b60008084815260200190815260200160002060a060405190810160405290816000820160009054906101000a900473ffffffffffffffffffffffffffffffffffffffff1673ffffffffffffffffffffffffffffffffffffffff1673ffffffffffffffffffffffffffffffffffffffff168152602001600182015481526020016002820160009054906101000a900473ffffffffffffffffffffffffffffffffffffffff1673ffffffffffffffffffffffffffffffffffffffff1673ffffffffffffffffffffffffffffffffffffffff1681526020016003820160009054906101000a900473ffffffffffffffffffffffffffffffffffffffff1673ffffffffffffffffffffffffffffffffffffffff1673ffffffffffffffffffffffffffffffffffffffff168152602001600482015481525050905060026001600085815260200190815260200160002060006101000a81548160ff02191690836002811115610bd857fe5b0217905550806000015173ffffffffffffffffffffffffffffffffffffffff166108fc82608001519081150290604051600060405180830381858888f19350505050158015610c2b573d6000803e3d6000fd5b507fbddd9b693ea862fad6ecf78fd51c065be26fda94d1f3cad3a7d691453a38a735836040518082815260200191505060405180910390a1505050565b60a060405190810160405280600073ffffffffffffffffffffffffffffffffffffffff16815260200160008152602001600073ffffffffffffffffffffffffffffffffffffffff168152602001600073ffffffffffffffffffffffffffffffffffffffff16815260200160008152509056fea165627a7a723058207a87c9aac7c987aea1b9a51f1da11a9c712f553de64f4d6afd2fa2e664026c370029",
  "source": "pragma solidity >=0.4.22 <0.6.0;\n\nimport \"./ERC20.sol\";\n\ncontract AtomicSwap {\n\n  struct Swap {\n    address payable initiatorEth;\n    uint256 erc20V;\n    address payable participantERC20;\n    address erc20ContractAddress;\n    uint256 value;\n  }\n\n  enum States {\n    OPEN, CLOSED, EXPIRED\n  }\n\n  modifier openSwaps(bytes32 sID) {\n    require (swapStates[sID] == States.OPEN);\n    _;\n  }\n\n  event Open(bytes32 sID, address _closeTrader);\n  event Close(bytes32 sID);\n  event Expire(bytes32 sID);\n\n  mapping (bytes32 => Swap) private swaps;\n  mapping (bytes32 => States) private swapStates;\n\n  function open(bytes32 sID, uint256 _erc20V, address payable _participantERC20, address payable _erc20ContractAddress) public payable {\n\n    Swap memory swap = Swap({\n      initiatorEth: msg.sender,\n      value: msg.value,\n      erc20V: _erc20V,\n      participantERC20: _participantERC20,\n      erc20ContractAddress: _erc20ContractAddress\n    });\n    swaps[sID] = swap;\n    swapStates[sID] = States.OPEN;\n\n   emit Open(sID, _participantERC20);\n  }\n\n  function checkTrade(bytes32 _swapID) public view returns (uint256 value, uint256 erc20V, address participantERC20, address erc20ContractAddress) {\n    Swap memory swap = swaps[_swapID];\n    return  (swap.value, swap.erc20V, swap.participantERC20, swap.erc20ContractAddress);\n  }\n\n  function close(bytes32 sID) public openSwaps(sID) {\n\n    Swap memory swap = swaps[sID];\n    swapStates[sID] = States.CLOSED;\n\n    ERC20 erc20Contract = ERC20(swap.erc20ContractAddress);\n    require(swap.erc20V <= erc20Contract.allowance(swap.participantERC20, address(this)));\n    require(erc20Contract.transferFrom(swap.participantERC20, swap.initiatorEth, swap.erc20V));\n\n    swap.participantERC20.transfer(swap.value);\n\n    emit Close(sID);\n  }\n\n  function expire(bytes32 sID) public openSwaps(sID) {\n\n    Swap memory swap = swaps[sID];\n    swapStates[sID] = States.EXPIRED;\n\n    swap.initiatorEth.transfer(swap.value);\n    emit Expire(sID);\n  }\n\n}\n",
  "sourcePath": "/home/rishabh/pwc-assignment/contracts/AtomicSwap.sol",
  "compiler": {
    "name": "solc",
    "version": "0.5.1+commit.c8a2cb62.Emscripten.clang"
  },
  "schemaVersion": "3.0.6",
  "updatedAt": "2019-04-15T12:36:52.147Z",
  "devdoc": {
    "methods": {}
  },
  "userdoc": {
    "methods": {}
  }
}