{
  "contractName": "AtomicSwap",
  "abi": [
    {
      "constant": false,
      "inputs": [
        {
          "name": "sID",
          "type": "bytes32"
        }
      ],
      "name": "close",
      "outputs": [],
      "payable": false,
      "stateMutability": "nonpayable",
      "type": "function"
    },
    {
      "constant": false,
      "inputs": [
        {
          "name": "sID",
          "type": "bytes32"
        },
        {
          "name": "_erc20Amount",
          "type": "uint256"
        },
        {
          "name": "_erc20Holder",
          "type": "address"
        },
        {
          "name": "_erc20ContractAddress",
          "type": "address"
        }
      ],
      "name": "open",
      "outputs": [],
      "payable": true,
      "stateMutability": "payable",
      "type": "function"
    },
    {
      "constant": false,
      "inputs": [
        {
          "name": "sID",
          "type": "bytes32"
        }
      ],
      "name": "expire",
      "outputs": [],
      "payable": false,
      "stateMutability": "nonpayable",
      "type": "function"
    },
    {
      "anonymous": false,
      "inputs": [
        {
          "indexed": false,
          "name": "sID",
          "type": "bytes32"
        },
        {
          "indexed": false,
          "name": "_closeTrader",
          "type": "address"
        }
      ],
      "name": "Open",
      "type": "event"
    },
    {
      "anonymous": false,
      "inputs": [
        {
          "indexed": false,
          "name": "sID",
          "type": "bytes32"
        }
      ],
      "name": "Close",
      "type": "event"
    },
    {
      "anonymous": false,
      "inputs": [
        {
          "indexed": false,
          "name": "sID",
          "type": "bytes32"
        }
      ],
      "name": "Expire",
      "type": "event"
    }
  ],
  "bytecode": "0x6060604052341561000f57600080fd5b610ab98061001e6000396000f300606060405260043610610057576000357c0100000000000000000000000000000000000000000000000000000000900463ffffffff16806339c79e0c1461005c5780636e79231514610083578063c6441798146100e6575b600080fd5b341561006757600080fd5b61008160048080356000191690602001909190505061010d565b005b6100e460048080356000191690602001909190803590602001909190803573ffffffffffffffffffffffffffffffffffffffff1690602001909190803573ffffffffffffffffffffffffffffffffffffffff1690602001909190505061058c565b005b34156100f157600080fd5b61010b6004808035600019169060200190919050506107be565b005b610115610a1b565b6000826000600281111561012557fe5b60016000836000191660001916815260200190815260200160002060009054906101000a900460ff16600281111561015957fe5b14151561016557600080fd5b600080856000191660001916815260200190815260200160002060a060405190810160405290816000820160009054906101000a900473ffffffffffffffffffffffffffffffffffffffff1673ffffffffffffffffffffffffffffffffffffffff1673ffffffffffffffffffffffffffffffffffffffff168152602001600182015481526020016002820160009054906101000a900473ffffffffffffffffffffffffffffffffffffffff1673ffffffffffffffffffffffffffffffffffffffff1673ffffffffffffffffffffffffffffffffffffffff1681526020016003820160009054906101000a900473ffffffffffffffffffffffffffffffffffffffff1673ffffffffffffffffffffffffffffffffffffffff1673ffffffffffffffffffffffffffffffffffffffff16815260200160048201548152505092506001806000866000191660001916815260200190815260200160002060006101000a81548160ff021916908360028111156102da57fe5b0217905550826060015191508173ffffffffffffffffffffffffffffffffffffffff1663dd62ed3e8460400151306000604051602001526040518363ffffffff167c0100000000000000000000000000000000000000000000000000000000028152600401808373ffffffffffffffffffffffffffffffffffffffff1673ffffffffffffffffffffffffffffffffffffffff1681526020018273ffffffffffffffffffffffffffffffffffffffff1673ffffffffffffffffffffffffffffffffffffffff16815260200192505050602060405180830381600087803b15156103c157600080fd5b6102c65a03f115156103d257600080fd5b505050604051805190508360200151111515156103ee57600080fd5b8173ffffffffffffffffffffffffffffffffffffffff166323b872dd8460400151856000015186602001516000604051602001526040518463ffffffff167c0100000000000000000000000000000000000000000000000000000000028152600401808473ffffffffffffffffffffffffffffffffffffffff1673ffffffffffffffffffffffffffffffffffffffff1681526020018373ffffffffffffffffffffffffffffffffffffffff1673ffffffffffffffffffffffffffffffffffffffff1681526020018281526020019350505050602060405180830381600087803b15156104d957600080fd5b6102c65a03f115156104ea57600080fd5b5050506040518051905015156104ff57600080fd5b826040015173ffffffffffffffffffffffffffffffffffffffff166108fc84608001519081150290604051600060405180830381858888f19350505050151561054757600080fd5b7fc9d8209586aca26a4f59cc70108e4cf2f637da8cb4133c78a3946bc50581ea288460405180826000191660001916815260200191505060405180910390a150505050565b610594610a1b565b60a0604051908101604052803373ffffffffffffffffffffffffffffffffffffffff1681526020018581526020018473ffffffffffffffffffffffffffffffffffffffff1681526020018373ffffffffffffffffffffffffffffffffffffffff16815260200134815250905080600080876000191660001916815260200190815260200160002060008201518160000160006101000a81548173ffffffffffffffffffffffffffffffffffffffff021916908373ffffffffffffffffffffffffffffffffffffffff1602179055506020820151816001015560408201518160020160006101000a81548173ffffffffffffffffffffffffffffffffffffffff021916908373ffffffffffffffffffffffffffffffffffffffff16021790555060608201518160030160006101000a81548173ffffffffffffffffffffffffffffffffffffffff021916908373ffffffffffffffffffffffffffffffffffffffff16021790555060808201518160040155905050600060016000876000191660001916815260200190815260200160002060006101000a81548160ff0219169083600281111561073f57fe5b02179055507fb5894ff5a344c5160302de0b2027c5b55f4914e9d8e8c11b377b559e5ec789eb85846040518083600019166000191681526020018273ffffffffffffffffffffffffffffffffffffffff1673ffffffffffffffffffffffffffffffffffffffff1681526020019250505060405180910390a15050505050565b6107c6610a1b565b81600060028111156107d457fe5b60016000836000191660001916815260200190815260200160002060009054906101000a900460ff16600281111561080857fe5b14151561081457600080fd5b600080846000191660001916815260200190815260200160002060a060405190810160405290816000820160009054906101000a900473ffffffffffffffffffffffffffffffffffffffff1673ffffffffffffffffffffffffffffffffffffffff1673ffffffffffffffffffffffffffffffffffffffff168152602001600182015481526020016002820160009054906101000a900473ffffffffffffffffffffffffffffffffffffffff1673ffffffffffffffffffffffffffffffffffffffff1673ffffffffffffffffffffffffffffffffffffffff1681526020016003820160009054906101000a900473ffffffffffffffffffffffffffffffffffffffff1673ffffffffffffffffffffffffffffffffffffffff1673ffffffffffffffffffffffffffffffffffffffff1681526020016004820154815250509150600260016000856000191660001916815260200190815260200160002060006101000a81548160ff0219169083600281111561098a57fe5b0217905550816000015173ffffffffffffffffffffffffffffffffffffffff166108fc83608001519081150290604051600060405180830381858888f1935050505015156109d757600080fd5b7fbddd9b693ea862fad6ecf78fd51c065be26fda94d1f3cad3a7d691453a38a7358360405180826000191660001916815260200191505060405180910390a1505050565b60a060405190810160405280600073ffffffffffffffffffffffffffffffffffffffff16815260200160008152602001600073ffffffffffffffffffffffffffffffffffffffff168152602001600073ffffffffffffffffffffffffffffffffffffffff1681526020016000815250905600a165627a7a7230582023b426673308e7dc81b761c728700fb68ed96584f0b98e691b7b6fa3ff25233a0029",
  "source": "pragma solidity ^0.4.18;\n\nimport \"./ERC20.sol\";\n\ncontract AtomicSwap {\n\n  struct Swap {\n    address ethHolder;\n    uint256 erc20Amount;\n    address erc20Holder;\n    address erc20ContractAddress;\n    uint256 value;\n  }\n\n  enum States {\n    OPEN, CLOSED, EXPIRED\n  }\n\n  modifier openSwaps(bytes32 sID) {\n    require (swapStates[sID] == States.OPEN);\n    _;\n  }\n\n  event Open(bytes32 sID, address _closeTrader);\n  event Close(bytes32 sID);\n  event Expire(bytes32 sID);\n\n  mapping (bytes32 => Swap) private swaps;\n  mapping (bytes32 => States) private swapStates;\n\n  function open(bytes32 sID, uint256 _erc20Amount, address _erc20Holder, address _erc20ContractAddress) public payable {\n\n    Swap memory swap = Swap({\n      ethHolder: msg.sender,\n      value: msg.value,\n      erc20Amount: _erc20Amount,\n      erc20Holder: _erc20Holder,\n      erc20ContractAddress: _erc20ContractAddress\n    });\n    swaps[sID] = swap;\n    swapStates[sID] = States.OPEN;\n\n    Open(sID, _erc20Holder);\n  }\n\n  function close(bytes32 sID) public openSwaps(sID) {\n\n    Swap memory swap = swaps[sID];\n    swapStates[sID] = States.CLOSED;\n\n    ERC20 erc20Contract = ERC20(swap.erc20ContractAddress);\n    require(swap.erc20Amount <= erc20Contract.allowance(swap.erc20Holder, address(this)));\n    require(erc20Contract.transferFrom(swap.erc20Holder, swap.ethHolder, swap.erc20Amount));\n\n    swap.erc20Holder.transfer(swap.value);\n\n    Close(sID);\n  }\n\n  function expire(bytes32 sID) public openSwaps(sID) {\n\n    Swap memory swap = swaps[sID];\n    swapStates[sID] = States.EXPIRED;\n\n    swap.ethHolder.transfer(swap.value);\n    Expire(sID);\n  }\n\n}\n",
  "sourcePath": "/home/rishabh/pwc-assignment/contracts/AtomicSwap.sol",
  "compiler": {
    "name": "solc",
    "version": "0.4.18+commit.9cf6e910.Emscripten.clang"
  },
  "schemaVersion": "1.0.1",
  "updatedAt": "2019-04-14T12:24:06.514Z"
}